:10000000B7C00000D0C00000CEC00000CCC00000CF
:10001000CAC00000C8C00000C6C00000C4C00000C4
:10002000C2C00000C0C00000CCC40000BCC00000C2
:10003000BAC00000B8C00000B6C00000B4C00000E4
:10004000B2C00000B0C00000AEC00000ACC00000F4
:10005000AAC00000A8C00000A6C00000A4C0000004
:10006000A2C0000047C100009EC000009CC000006C
:100070009AC0000098C0000096C0000094C0000024
:1000800092C0000090C000008EC000008CC0000034
:100090008AC0000088C0000086C0000084C0000044
:1000A00082C0000080C000007EC000001403480031
:1000B0004F0052004900500041004400200053000E
:1000C00000001C0348004F0052004900200043007C
:1000D0004F002E002C004C00540044002E00000065
:1000E0000403090409022900010100807D090400BC
:1000F0000002030000000921110100012250000745
:1001000005020340000507058103400005120100B8
:1001100002000000400D0FC1007205010200010540
:10012000010905A10115002501350045017501955D
:100130000E05091901290E8102950281010501258B
:1001400007463B0175049501651409398142650034
:100150009501810126FF0046FF000930093109326F
:100160000935750895048102750895018101C00063
:1001700011241FBECFEFDAE0DEBFCDBF11E0A0E05B
:10018000B1E0E0E8FEE002C005900D92A230B107B8
:10019000D9F721E0A2E0B1E001C01D92A932B20777
:1001A000E1F7B8D16BC62CCFCF93DF9300D000D04E
:1001B000CDB7DEB79C011092C80086E08093CA00DC
:1001C0001092CB00C90137FD019695958795092EB0
:1001D000000CAA0BBB0BAC01BD01405C5D4B604F3A
:1001E0007F4F49835A836B837C83032E000C440B1F
:1001F000550B69817A818B819C811ED621503109F2
:100200003093CD002093CC0088E18093C900539AAD
:100210005A9A0F900F900F900F90DF91CF91089501
:1002200084B7877F84BF0FB6F894A895809160004B
:10023000886180936000109260000FBE0895E9EC21
:10024000F0E080818F7780830895E9ECF0E0808191
:100250008068808308959091C80095FFFCCF8093BB
:10026000CE0008958091C80087FFFCCF8091CE001A
:1002700008959C01DA01832F992783309105B9F005
:1002800060F48130910561F10297E1F489E290E038
:1002900024EE30E02D933C9308958132910529F1AD
:1002A000829781F480E590E02FE131E0F3CFC9013E
:1002B0009927213061F08230910579F0E0EEF0E08D
:1002C000892B39F090E080E030E020E0E3CFE2ECF1
:1002D000F0E0849190E09F01DDCFECEAF0E0F9CF0F
:1002E00082E190E02DE031E0D5CF89E090E026EF8B
:1002F00030E0D0CF1F920F920FB60F9211242F93A0
:100300003F934F935F936F937F938F939F93AF939D
:10031000BF93CF93EF93FF93A5DFC82F8091000188
:100320008130B9F4C33351F482E0809300018CEC46
:1003300092DF80910001833071F503C083E08093E8
:100340000001CF3F41F581E0809300018FEF83DF13
:1003500022C0823031F4CC3C89F71092000183E353
:10036000E7CF8111E6CFE0911B0190911A01E830AF
:1003700020F581E08E0F80931B01F0E0EE5EFE4FD2
:10038000C0839C27C8E087E0990F08F49827CA9596
:10039000D9F790931A01FF91EF91CF91BF91AF914F
:1003A0009F918F917F916F915F914F913F912F918D
:1003B0000F900FBE0F901F901895C91769F082E932
:1003C000CF3F21F481E0809300018FEF44DF109252
:1003D0001B0110921A01ADCF80911201909113016F
:1003E00098278927982790930B0180930A01809181
:1003F000140180930C018091150180930D0180916F
:10040000160180930E018091170180930F01809156
:100410001801809310018091190180931101D7CFA9
:10042000FFDE80E890E00FB6F8948093610090932F
:1004300061000FBE80E09BE4B7DEA6C20895089578
:1004400042E360EC82E0DCD142E361EC81E0D8C1C0
:100450000895CF93DF93CDB7DEB728970FB6F89402
:10046000DEBF0FBECDBF80911F01843009F03FC0B9
:1004700082E08093E9008091E80082FF12C08091C1
:10048000E80085FF09C050E040E067E070E0CE0181
:100490000196B3D08111F7CF8091E8008B778093DC
:1004A000E80081E08093E9008091E80080FF1FC0B0
:1004B000C6DE80910001811123C088E0EAE0F1E00E
:1004C000DE01119601900D928A95E1F780E9C3DE75
:1004D000BCDE50E040E068E070E0CE0101963FD025
:1004E0008111F7CF8091E8008E778093E8002896FD
:1004F0000FB6F894DEBF0FBECDBFDF91CF91089548
:1005000088E0E2E0F1E0DE01119601900D928A951B
:10051000E1F7DECF98E0E2E0F1E0DF01892F1D9204
:100520008A95E9F780E8809305018093060180931E
:1005300007018093080190930401AAE0B1E00190C3
:100540000D929A95E1F7E2E1F1E08AE0DF011D9278
:100550008A95E9F765DF78947CDF54D4FDCFAF92BC
:10056000BF92CF92DF92FF920F931F93CF93DF93AF
:100570006C01EB018A0197D1F82E811124C001157D
:10058000110539F0F80180819181C81BD90BC80E83
:10059000D91EB12CA12C2097B1F08091E80085FDE7
:1005A00022C08091E8008E778093E8002BD401155B
:1005B0001105A1F0F80180819181A80EB91EB182C8
:1005C000A08285E0F82E8F2DDF91CF911F910F91A2
:1005D000FF90DF90CF90BF90AF90089564D18823B3
:1005E000D1F2F82EF0CFF60181916F018093F100E6
:1005F0002197FFEFAF1ABF0ACECFAF92BF92CF9233
:10060000DF92FF920F931F93CF93DF936C01EB0167
:100610008A0149D1F82E811124C00115110539F044
:10062000F80180819181C81BD90BC80ED91EB12C4D
:10063000A12C2097B1F08091E80085FD22C0809127
:10064000E8008B778093E800DDD301151105A1F058
:10065000F80180819181A80EB91EB182A08285E047
:10066000F82E8F2DDF91CF911F910F91FF90DF908A
:10067000CF90BF90AF90089516D18823D1F2F82E75
:10068000F0CF8091F100F60181936F012197FFEF88
:10069000AF1ABF0ACECFFC01CB01209126013091C9
:1006A00027012617370790F0009729F42091E800DA
:1006B0002E772093E80040E0009751F4411108C0E4
:1006C0008091E80082FF31C080E00895C901F3CF36
:1006D00020911F012223A9F12530A9F12091E800E2
:1006E00023FD2DC02091E80022FDEACF2091E800F3
:1006F00020FFE2CF3091F3002091F200009719F033
:100700002034310558F041E02034310509F040E053
:100710002091E8002E772093E800CECF41914093BE
:10072000F10001972F5F3F4FE9CF80911F01882390
:1007300041F0853041F08091E80083FFC1CF81E036
:10074000089582E0089583E00895FC01CB01209193
:100750002601309127012617370790F0009729F4DA
:100760002091E8002E772093E80040E0009751F4B4
:10077000411108C08091E80082FF32C080E00895F6
:10078000C901F3CF20911F012223B1F12530B1F12E
:100790002091E80023FD2EC02091E80022FDEACF41
:1007A0002091E80020FFE2CF3091F3002091F20089
:1007B000009719F02034310558F041E0203431051C
:1007C00009F040E02091E8002E772093E800CECF9A
:1007D00044914093F100319601972F5F3F4FE8CF4E
:1007E00080911F01882341F0853041F08091E8001D
:1007F00083FFC0CF81E0089582E0089583E00895EB
:10080000982F973028F08F708093E90081E0089549
:100810009093E900242F762F50E0981731F07091D3
:10082000EC002091ED005091F00021FD02C09F5F8F
:10083000E8CF3091EB003E7F3093EB003091ED003C
:100840003D7F3093ED003091EB0031603093EB0051
:100850007093EC002093ED005093F0002091EE0097
:1008600027FDE5CF80E008958091200187FF13C028
:100870008091E80082FF06C08091E8008B7780932A
:10088000E80004C080911F018111F2CF089580918A
:100890001F018823D9F38091E80080FFF8CF809171
:1008A000E8008E77ECCF2091E4003091E50095E6EA
:1008B000A9012091EC00822F817020FF06C0809159
:1008C000E80080FF06C080E008952091E80022FD46
:1008D0001AC080911F01882389F0853089F08091AA
:1008E000EB0085FD0FC02091E4003091E500421738
:1008F0005307F9F29150E1F684E0089582E00895FB
:1009000083E0089581E008950F931F93CF93DF93C1
:100910004BD052D0C8EDD0E088818F778883888112
:100920008068888388818F7D888319BC10921F011D
:1009300010921E0110921C0110921D0100EE10E099
:10094000F80180818B7F808388818160888342E386
:1009500060E080E055DFE1EEF0E080818E7F808313
:10096000E2EEF0E080818160808380818860808316
:10097000F80180818E7F8083888180618883DF9108
:10098000CF911F910F910895E8EDF0E080818F7E67
:100990008083E7EDF0E080818160808384E082BF26
:1009A00081E080932801B0CFE8EDF0E080818E7F78
:1009B00080831092E20008951092DA001092E10014
:1009C00008951F920F920FB60F9211242F933F9309
:1009D0004F935F936F937F938F939F93AF93BF9347
:1009E000EF93FF938091E10082FF0AC08091E200C3
:1009F00082FF06C08091E1008B7F8093E10001D2ED
:100A00008091DA0080FF18C08091D80080FF14C068
:100A10008091DA008E7F8093DA008091D90080FF88
:100A20008AC080E189BD82E189BD09B400FEFDCFA5
:100A300081E080931F0102DD8091E10080FF18C0FA
:100A40008091E20080FF14C08091E2008E7F80934D
:100A5000E2008091E20080618093E2008091D80002
:100A600080628093D80019BC85E080931F01C9D1B2
:100A70008091E10084FF28C08091E20084FF24C0BF
:100A800080E189BD82E189BD09B400FEFDCF80917E
:100A9000D8008F7D8093D8008091E1008F7E809375
:100AA000E1008091E2008F7E8093E2008091E2007D
:100AB00081608093E20080911E01882309F440C088
:100AC00084E080931F019DD18091E10083FF22C0CB
:100AD0008091E20083FF1EC08091E100877F8093B8
:100AE000E10082E080931F0110921E018091E100DD
:100AF0008E7F8093E1008091E2008E7F8093E20000
:100B00008091E20080618093E20042E360E080E057
:100B100077DE77D1FF91EF91BF91AF919F918F9148
:100B20007F916F915F914F913F912F910F900FBEE9
:100B30000F901F90189519BC10921F0180DC7CCF7C
:100B40008091E30087FD02C081E0BBCF83E0B9CF95
:100B50001F93CF93DF93CDB7DEB7AA970FB6F89464
:100B6000DEBF0FBECDBF80E291E0FC010196209177
:100B7000F100208321E088329207B9F769DC809187
:100B8000E80083FF10C080912001909121019530F1
:100B900009F4C1C000F5292F2D7F213009F488C048
:100BA000992309F45DC08091E80083FF0AC0809119
:100BB000E800877F8093E8008091EB00806280935B
:100BC000EB00AA960FB6F894DEBF0FBECDBFDF9143
:100BD000CF911F910895983009F4D4C0993009F449
:100BE000DEC0963001F780588230E8F6809122010D
:100BF000909123018C3D23E0920709F0AEC083E081
:100C00008A838AE289834FB7F894DE01139620E045
:100C10003EE051E2E32FF0E050935700849120FF33
:100C200003C082958F703F5F8F708A3008F493C045
:100C3000895C90E08D939D932F5F243159F74FBFCE
:100C40008091E800877F8093E8006AE270E0CE013F
:100C5000019621DD8091E8008B778093E800A3CF97
:100C6000803899F0823809F09ECF809124018F70EE
:100C7000873008F098CF8093E9008091EB0085FBE6
:100C8000882780F91092E90006C080911D0190919B
:100C90001C01911182609091E800977F9093E80089
:100CA0008093F1001092F1008091E8008E77A5C04A
:100CB000882309F492C0823009F075CF8091220117
:100CC000811196C0809124018F702FEF280F26305C
:100CD00008F069CF8093E9002091EB0020FF88C0E5
:100CE000933031F48091EB0080628093EB0080C000
:100CF0009091EB0090619093EB0021E030E001C017
:100D0000220F8A95EAF72093EA001092EA00809178
:100D1000EB008860EACF811146CF109122011F7746
:100D20008091E3008078812B8093E3008091E8003C
:100D3000877F8093E80098DD8091E80080FFFCCFFA
:100D40008091E30080688093E30082E0111183E0EA
:100D500080931F0128CF805D6CCF6091240170913A
:100D60002501AE014F5F5F4F84DABC01892B09F486
:100D70001ACF8091E800877F8093E80089819A816B
:100D8000E4DC68CF803809F00ECF8091E800877FDF
:100D90008093E80080911E018093F10085CF81113E
:100DA00002CF90912201923008F0FDCE8091E800B0
:100DB000877F8093E80090931E0156DD80911E018D
:100DC000882311F084E005C08091E30087FDFACF0D
:100DD00081E080931F0134DBE6CE809122018130D7
:100DE00009F0E1CE81E0933009F080E080931C01AE
:100DF0001092E9008091E800877F8093E80034DD5D
:100E0000D2CE0895CF9380911F01882399F0C0918D
:100E1000E900CF709091EC00892F817090FD80E8FF
:100E2000C82B1092E9008091E80083FD91DECF701D
:100E3000C093E900CF910895A1E21A2EAA1BBB1B13
:100E4000FD010DC0AA1FBB1FEE1FFF1FA217B30796
:100E5000E407F50720F0A21BB30BE40BF50B661FAC
:100E6000771F881F991F1A9469F760957095809570
:100E700090959B01AC01BD01CF010895F894FFCF7F
:020E800003006D
:00000001FF
